:020000040800F2
:20000000E8470020C9010008D1010008D3010008D5010008D7010008D90100080000000069
:20002000000000000000000000000000DB010008DD01000800000000DF010008E101000824
:20004000E3010008E3010008E3010008E3010008E3010008E3010008E3010008E301000840
:20006000E3010008E3010008E3010008E3010008E3010008E3010008E3010008E301000820
:20008000E3010008E3010008E3010008E3010008E3010008E3010008E3010008E301000800
:2000A000E3010008E3010008E3010008E3010008E3010008E3010008E3010008E3010008E0
:2000C000E3010008E3010008E3010008E3010008E3010008E3010008E30100082934000847
:2000E000E3010008E3010008E3010008E3010008E3010008E3010008E3010008E3010008A0
:20010000E3010008E5210008E3010008E3010008E3010008E3010008E3010008E30100085D
:20012000E3010008E3010008E3010008F9020008E3010008E3010008E3010008E301000848
:20014000E3010008E3010008E3010008E3010008E301000809030008E3010008E301000817
:20016000E3010008E3010008E3010008E3010008E3010008E3010008E3010008000000000B
:20018000E3010008E3010008E3010008E3010008E3010008E3010008E3010008E3010008FF
:2001A000E3010008E3010008E3010008DFF80CD000F090F800480047014B0008E84700201E
:2001C00080F30888704700000648804706480047FEE7FEE7FEE7FEE7FEE7FEE7FEE7FEE793
:2001E000FEE7FEE795320008AD0100082DE9F05F0546002092469B468846064681464024E2
:200200001BE0284641464746224600F053F853465A46C01A914110D311461846224600F0E9
:200220003AF82D1A67EB01084F4622460120002100F031F817EB00094E41201EA4F1010420
:20024000DFDC484631462A464346BDE8F09F40EA01039B0703D009E008C9121F08C0042A2D
:20026000FAD203E011F8013B00F8013B521EF9D27047D2B201E000F8012B491EFBD27047F0
:200280000022F6E710B513460A4604461946FFF7F0FF204610BD202A04DB203A00FA02F1C0
:2002A000002070479140C2F1200320FA03F3194390407047202A04DB203A21FA02F000211C
:2002C000704721FA02F3D040C2F120029140084319467047064C074D06E0E06840F0010338
:2002E00094E8070098471034AC42F6D3FFF762FFDC780008FC78000810B5024800F0ECFA8D
:2003000010BD0000D400002010B5024800F0E4FA10BD0000340100200146087810381823D3
:20032000B0FBF3F20848805CC865032A05D908686FF30900001D886503E008686FF3090026
:200340008865886D7047000060550008014600208A6A8B69CBB932B1012A0DD0022A03D08A
:20036000032A10D10EE000BFCB6A03F08073B3F1807F00D1012007E0CB6AB3F1C07F00D142
:20038000012001E000E000BF34E08B69B3F5005F1AD132B1012A07D0022A03D0032A11D1CF
:2003A0000AE000BF01200EE0CB6A03F08073B3F1807F00D1012006E0CB6AB3F1C07F00D106
:2003C000012000E000BF15E032B1012A05D0022A04D0032A0CD103E000BF00BF012008E011
:2003E000CB6A03F08073B3F1807F00D1012000E000BF00BF704730B50468246824F480249F
:2004000005682C60046863608468402C04D10468A2600468E16003E00468A1600468E2606E
:2004200030BD00004FF0E021096921F004014FF0E02211610146C21700EB5272C2F3C70207
:20044000014B1A70704700001800002030B50446002505E04FF47A7000F006F8681C85B2C8
:20046000A542F7DB30BD000001460D4A12784A434FF0E0235A6100229A6101221A6100BFAA
:200480004FF0E022106900F001021AB100F48032002AF5D000224FF0E0231A619A617047BE
:2004A0001800002010B500BF4FF480600A49086000BF00BF00050949086000BF0A20FFF786
:2004C000C5FF00BF4FF480400449086000BF6420FFF7BCFF10BD0000180402401808024060
:2004E00000B587B003200590002004900120039000BF002001902C48006840F002002A49FF
:2005000008600846006800F00200019000BF00BF0815029002A9254800F086FC4FF4804080
:20052000029000BF002001901F48006840F004001D4908600846006800F00400019000BFEE
:2005400000BF02A91A4800F06FFC00BF4FF4806016491831086000BF00BF0001144918315D
:20056000086000BF4FF4E1312A2002F0C5FE00BF4FF080600D491831086000BF00BF00019C
:200580000B491831086000BF6420FFF75FFF00BF4FF4804006491831086000BF4FF47A7011
:2005A000FFF754FF07B000BD30380240000402400008024010B5002201B909E0012901D1BE
:2005C0000A0205E0022901D10A0201E04FF440720B2800D9001D0E4B1B6823F440730C4C24
:2005E000236023461B681343236023461B6823F0F803236023461B68022444EAC0042343CC
:20060000034C236023461B6843F48033236010BD103C02401C48006800F40070B0B11A4861
:20062000006820F400701849086000BF0846006840F4006008600846006820F40060086002
:2006400000BF0846006840F4007008600E48006800F48060B0B10C48006820F480600A4923
:20066000086000BF0846006840F4805008600846006820F48050086000BF0846006840F486
:200680008060086070470000003C0240134A126822F44072114B1A60032906D11A4612688B
:2006A000DB131A430D4B1A600EE0012906D10B4A126842F00402094B1A6005E0074A1268A9
:2006C00042F40042054B1A60044A12684FF4803343EA00231A43014B1A607047103C024062
:2006E000074A126822F44072054B1A601A4612681A601A46126842F001021A600170704798
:20070000103C024010B50D49096821F440710B4C21602146096841F440712160214609680A
:2007200041F001012160026000BF00BF00BFBFF36F8F00BF00BF00BF436010BD103C02407B
:20074000084A126822F44072064B1A601A46126842F480721A601A46126842F001021A6035
:2007600001807047103C0240084A126822F44072064B1A601A46126842F400721A601A46F8
:20078000126842F001021A6001607047103C02402A48006800F0100040B12948C06940F0F5
:2007A00010002749C8611020244908602348006800F0200040B12248C06940F00800204983
:2007C000C86120201D4908601C48006800F0400040B11B48C06940F004001949C86140204A
:2007E000164908601548006800F0800040B11448C06940F002001249C86180200F49086071
:200800000E48006800F4807048B10D48C06940F001000B49C8614FF48070084908600748D6
:20082000006800F0020040B10548C06940F020000349C86102200149086070470C3C02401D
:200840003000002070B50446002500201449C86100F008FC054609E0601C38B124B100F0BC
:2008600001FC401BA04201D9032070BD0D48006800F480300028EFD10A48006800F0010020
:2008800010B10120074908600648006800F4F97018B1FFF77DFF0120E7E70020E5E7000095
:2008A000300000200C3C0240014691F83500022803D08020486501207047052081F8350064
:2008C0000868006820F001000A6810600020F3E70146486D70470000F8B5044600200090F9
:2008E0008C4800684FF41651B0FBF1F7A56D2E6894F85C1008208840304098B12068006846
:2009000000F0040070B12068006820F004002168086094F85C1008208840A860606D40F0E0
:200920000100606594F85C1001208840304068B12068406900F0800040B194F85C100120DC
:200940008840A860606D40F00200606594F85C1004208840304068B12068006800F00200B4
:2009600040B194F85C1004208840A860606D40F00400606594F85C1010208840304078B349
:200980002068006800F0080050B394F85C1010208840A8602068006800F4802080B1206837
:2009A000006800F4002028B9206CC8B12046216C884715E0A06C98B12046A16C88470FE098
:2009C0002068006800F4807028B92068006820F0080021680860206C10B12046216C88475A
:2009E00094F85C10202088403040002865D02068006800F0100000285FD094F85C102020AB
:200A00008840A86094F83500052828D12068006820F01600216808602068406920F0800057
:200A200021684861206C08B9A06C28B12068006820F008002168086094F85C103F2088403A
:200A4000A86000BF002084F8340000BF012084F83500206D10B12046216D8847F8BD206820
:200A6000006800F4802080B12068006800F4002028B9606C10B12046616C88471DE0E06B8D
:200A8000D8B12046E16B884717E02068006800F4807068B92068006820F01000216808605F
:200AA00000BF002084F8340000BF012084F83500E06B10B12046E16B8847606D38B3606D04
:200AC00000F00100F0B1052084F835002068006820F001002168086000BF0098401C009079
:200AE000B84200D905E02068006800F001000028F3D100BF00BF002084F8340000BF012043
:200B000084F83500E06C10B12046E16C884700BFA4E70000000000202DE9F0410446002575
:200B200000F0A0FA074614B90120BDE8F081606A00B100BF00BF002084F8340000BF022030
:200B400084F835002068006820F00100216808600AE000F087FAC01B052805D920206065AC
:200B6000032084F83500E0E72068006800F001000028EED12068056821480540D4E90101B0
:200B80000843E16808432169084361690843A1690843E1690843216A08430543606A04288E
:200BA00003D1D4E90B0108430543206805602068456925F00705606A0543606A04280DD1DB
:200BC000A06A0543E06A48B12046FFF7BFFB28B140206065012084F83500A6E720684561DF
:200BE0002046FFF799FB064694F85C103F208840B06000206065012084F83500002094E738
:200C00003F8010F02DE9F04704460D4616461F464FF00008D4F8589000BF94F834000128C7
:200C200002D10220BDE8F087012084F8340000BF94F83500012825D1022084F83500002040
:200C400060653B46324629462046FFF7D4FB94F85C103F208840C9F808002068006840F034
:200C6000160021680860206C28B12068006840F00800216808602068006840F00100216845
:200C8000086006E000BF002084F8340000BF4FF002084046C6E700002DE9F04104460E4657
:200CA0000127002500BF2648007E012802D10220BDE8F08101202249087600BF4CF2503081
:200CC000FFF7C0FD0746002F32D1401E30602068012810D1207C6168FFF7D8FC4CF2503075
:200CE000FFF7B0FD07461748006848F204018843144908601AE0A56812E0217C2846FFF774
:200D000059FC4CF25030FFF79DFD07460D48006820F0FA000B4908600FB1356005E06D1C9D
:200D2000D4E902100844A842E7D800BFFFF772FC00BF00200249087600BF3846B8E7000048
:200D400030000020103C02400348006840F000400149086000207047103C02402DE9F04134
:200D600006460F4614461D464FF0010800BF1F48007E012802D10220BDE8F08101201B4970
:200D8000087600BF4CF25030FFF75CFD8046B8F1000F23D126B9E1B23846FFF7A1FC12E022
:200DA000012E04D1A1B23846FFF7CAFC0BE0022E04D121463846FFF7D7FC04E022462B4647
:200DC0003846FFF79FFC4CF25030FFF73BFD80460748006820F001000549086000BF0020F5
:200DE0000249087600BF4046C6E7000030000020103C024000200949096801F0004159B13B
:200E00000749064A0C3A1160064911600349096801F0004101B1012070470000103C0240B4
:200E200023016745AB89EFCDF8B502460B460025002400200021E6E0012606FA01F51E68B9
:200E400006EA0504AC4273D15E68012E08D05E68022E05D05E68112E02D05E68122E13D10E
:200E600090684F000326BE40B0434F00DE68BE4030439060506801268E40B0431E79C6F32B
:200E800000168E4030435060D0684F000326BE40B0434F009E68BE403043D0605E68022EBE
:200EA00002D05E68122E13D1CF0802F1200656F827004E07F70E0F26BE40B0434F07FF0E2E
:200EC0001E69BE403043CF0802F1200646F8270010684F000326BE40B0431E7906F003064E
:200EE0004F00BE40304310605E6806F08056B6F1805FA8D100BF00260096454E366846F44B
:200F00008046434F3E603E46366806F48046009600BF00BF3F4E8F0856F827008E07370F71
:200F20000F26BE40B0433C4EB24202D100262EE068E03A4EB24201D1012628E0384EB242C7
:200F400001D1022623E0374EB24201D103261EE0354EB24201D1042619E0344EB24201D16E
:200F6000052614E0324EB24201D106260FE0314EB24201D107260AE02F4EB24201D1082624
:200F800005E02E4EB24201D1092600E00A268F073F0FBE4030431F4E8F0846F82700284EB7
:200FA0003068A0435E6806F48036B6F5803F00D12043234E3060361D3068A0435E6806F413
:200FC0000036B6F5003F00D120431D4E361D3060361D3068A0435E6806F48016B6F5801F01
:200FE00000D12043164E08363060361D3068A0435E6806F40016B6F5001F00D12043104E8B
:201000000C363060491C1029FFF416AFF8BD0000443802400838014000000240000402402C
:2010200000080240000C0240001002400014024000180240001C02400020024000240240F0
:20104000003C014042690A408A4202D10A04826100E0816170470AB1816101E00B048361A4
:201060007047000001480068704700000400002070B504460E4800784FF47A71B1FBF0F036
:201080000C490968B1FBF0F5284601F02DF808B1012070BD102C07D200222146501E00F072
:2010A0000DF80548046001E00120F2E70020F0E70C00002000000020080000202DE9F05FCF
:2010C00080460D461646002702F0FCF9074639462A46334601F00700C0F1070ABAF1040F60
:2010E00002D94FF0040A01E0C0F1070AD14600F1040ABAF1070F02D24FF0000A01E0A0F1BF
:20110000030AD4464FF0010A0AFA09FAAAF1010A0AEA020A0AFA0CFA4FF0010B0BFA0CFB50
:20112000ABF1010B0BEA030B4AEA0B042146404602F0D0F9BDE8F09F00BF00F00702064BDC
:2011400019684FF6FF031940044B0B4343EA0221014B196000BF70470CED00E00000FA056E
:2011600038B5002400BF002000901D48006840F080501B4908600846006800F08050009050
:2011800000BF00BF012017490864FFF76BFF044607E0FFF767FF001BB0F57A7F01D9032041
:2011A00038BD1148406800F48030B0F5803FF0D101200C494864FFF755FF044607E0FFF7DD
:2011C00051FF001BB0F57A7F01D90320E8E70648406800F40030B0F5003FF0D10020DFE795
:2011E0004038024000000E420070004070B504460D460CB9012070BD5848006800F00F0059
:20120000A84209D255490D700846006800F00F00A84201D00120EEE7207800F002000228D4
:201220001DD1207800F00400042805D14C48006840F4E0504A490860207800F00800082817
:2012400005D14748006840F46040454908604448006820F0F000A168084341490860207825
:2012600000F00100A8B36068012807D13C4808380068C0F34040B8B90120BCE760680228D3
:2012800002D06068032807D1354808380068C0F3406048B90120AEE7314808380068C0F3AE
:2012A000400008B90120A6E72D48006820F00300616808432A490860FFF7D4FE064609E0A3
:2012C000FFF7D0FE801B41F28831884202D9032091E707E02248006800F00C006168B0EB6A
:2012E000810FEDD11D48006800F00F00A84209D91A490D700846006800F00F00A84201D0B8
:20130000012078E7207800F00400042807D11448006820F4E050E1680843114908602078C7
:2013200000F00800082808D10D48006820F46040216940EAC1000A49086000F019F80849B9
:201340000968C1F30311074A515CC8400649086006480068FFF78CFE00204CE7003C024090
:20136000083802404855000800000020080000202DE9F047002400250026A1462548006886
:2013800000F00C0020B1042805D008283AD105E0DFF8849039E0DFF8849036E01D48001FD6
:2013A000006800F03F041B48001F006800F4800078B11A481749091F0968C1F38811A0FBC8
:2013C00001700146224600233846FEF70FFF05460EE011480F49091F0968C1F38811A0FBDE
:2013E00001700146224600233846FEF7FFFE05460848001F0068C0F30140401C4600B5FBD2
:20140000F6F902E0DFF8109000BF00BF4846BDE8F0870000083802400024F400001BB700F0
:20142000F8B504460CB90120F8BD207800F00100002874D0F948006800F00C0004280DD077
:20144000F648006800F00C00082813D1F348001F006800F48000B0F5800F0BD1EF48083819
:201460000068C0F34040002859D06068002856D10120D9E700BF6068B0F5803F08D1E74895
:201480000838006840F48030E449083908601EE06068B0F5A02F0DD1E0480838006840F4CE
:2014A0008020DE49083908600846006840F4803008600CE0D9480838006820F48030D74921
:2014C000083908600846006820F48020086000BF606890B1FFF7C6FD054606E0FFF7C2FD2A
:2014E000401B642801D903209EE7CC4808380068C0F340400028F1D011E0FFF7B3FD0546C9
:2015000006E0FFF7AFFD401B642801D903208BE7C24808380068C0F340400028F1D1207886
:2015200000F0020002285FD1BC48006800F00C0058B1BA48006800F00C0008281CD1B7486C
:20154000001F006800F48000B0B9B44808380068C0F3400020B1E068012801D0012063E712
:20156000AE480838006820F0F800216940EAC100AA490839086037E0E06800B30120A84990
:201580000860FFF76FFD054606E0FFF76BFD401B022801D9032047E7A04808380068C0F3FF
:2015A00040000028F1D09D480838006820F0F800216940EAC10099490839086014E0002059
:2015C00097490860FFF74EFD054606E0FFF74AFD401B022801D9032026E790480838006805
:2015E000C0F340000028F1D1207800F0080008282CD16069A8B101208A490860FFF732FDAE
:20160000054606E0FFF72EFD401B022801D903200AE782486C300068C0F340000028F1D05B
:2016200014E000207F490860FFF71CFD054606E0FFF718FD401B022801D90320F4E6774800
:201640006C300068C0F340000028F1D1207800F00400042870D1002770483830006800F011
:20166000805090B900BF002000906C483830006840F080506949383108600846006800F035
:201680008050009000BF00BF01276748006800F48070B0B96448006840F480706249086095
:2016A000FFF7E0FC054606E0FFF7DCFC401B022801D90320B8E65C48006800F48070002821
:2016C000F2D000BFA068012808D154486830006840F001005149683108601DE0A0680528E5
:2016E0000DD14E486830006840F004004B49683108600846006840F0010008600CE04748E3
:201700006830006820F001004449683108600846006820F00400086000BFA068A8B1FFF7E2
:20172000A1FC054609E0FFF79DFC401B41F28831884202D9032077E626E038486830006857
:20174000C0F340000028EED013E0FFF78BFC054608E0FFF787FC401B41F28831884201D9A9
:20176000032061E62D4868300068C0F340000028EFD1012F07D129483830006820F0805086
:2017800026493831086000BFA069002845D02348006800F00C0008285DD0A069022845D18F
:2017A00000201F490866FFF75DFC054606E0FFF759FC401B022801D9032035E6174808382C
:2017C0000068C0F340600028F1D1D4E907010843616A40EA81110122A06AC2EB500041EA78
:2017E00000412C20005D41EA00600C49091F086001200B490866FFF735FC054606E0FFF75E
:2018000031FC401B022801D903200DE6034808380068C0F340600028F1D03FE00838024056
:2018200000004742800E47420070004000201C490866FFF717FC054606E0FFF713FC401BCB
:20184000022801D90320EFE516480068C0F340600028F2D122E0A069012800D1E4E5114862
:20186000001D066806F48001E069814214D106F03F01206A81420FD147F6C0703040616A66
:20188000884209D106F44031A06A814204D106F07061E06A814201D00120C5E50020C3E55F
:2018A00000004742003802407047000070B58AB004460D46032084F83400606C032820D0B8
:2018C000B5F5805F04D1A06B40F08050A0631CE0B5F5006F07D1204601F02FFC0646A06BD6
:2018E0003043A06311E03DB9204601F0F2FB0646A06B3043A06308E0A06B40F00060A063F4
:2019000003E0A06B40F08050A063A06B38B1104821688863012084F834000AB070BD606896
:201920000490A0680590E0680690079560690890A069099007A807C88DE80700206804A9CA
:201940000EC900F057FC012084F834000020E4E7FF0540007047000010B50246506E800F5C
:201960000870506EC0F383604870506EC0F301608870506E000CC870B2F86400000A087186
:2019800092F864004871906E000DC880906EC0F3034008726820805AC0F3C0304872682098
:2019A000805AC0F3803088726820805AC0F34030C8726820805AC0F3003008730020487396
:2019C000506C002836D16820805A8005030DD06E43EA90700861D06EC0F3C2600875D06E83
:2019E000C0F302604875D06EC0F342508875D06EC0F38240C875D06EC0F3C23008760869D3
:201A0000401C50650B7E506D03F007039B1C01249C4060435065087A00F00F0301209840E5
:201A20009065D2E915035B0A5843D0654FF40073136621E0506C012813D16820805C8006C6
:201A4000830AD06E43EA104008610869401C83025365536DD3654FF400739365936D1366AC
:201A60000AE02E4813689863906B40F080509063012082F8340010BD6C20805AC0F380303D
:201A800001F8190F6C20805AC0F3C61048706C20805C00F07F008870106FC00FC870106FAA
:201AA000C0F341700871106FC0F382604871106FC0F383508871106FC0F34050C871002063
:201AC0000872106FC0F3004048727020805AC0F3C03088727020805AC0F38030C8727020C2
:201AE000805AC0F3403008737020805AC0F3003048737020805AC0F3812088737020805A43
:201B0000C0F30120C8737020805CC0F3460008740120487419390020ADE70000FF054000AE
:201B2000F8B50446002000906946204601F0B9FA054615B1A06B2843A0630098C0F3432607
:201B40003046F8BD70B50446256B2068406BC0F3C03030B105F0080018B1204601F07CFA11
:201B6000F8E02068406BC0F30020002862D04FF48070216888632068C06B4CF23A3188435F
:201B80002168C8632068C06A20F001002168C86205F0080038B305F0020010B905F020005E
:201BA00050B1206800F0ECFD06462EB1A06B3043A0632046FFF7CEFE40F23A5021688863BF
:201BC000012084F834000020206305F0010010B905F0020018B1204600F0CEF9BAE02046F5
:201BE00000F0D0F9B6E005F080000028B8D005F0200050B1206800F0C3FD06462EB1A06BED
:201C00003043A0632046FFF7A5FE05F001000028A6D105F002000028A2D12068C06A20F066
:201C200008002168C862012084F83400204600F0A9F98FE02068406BC0F3803030B105F045
:201C4000080018B1204601F0ACFA83E02068406B40F23A21084008B1012000E00020002849
:201C600078D02068406BC0F3400018B1A06B40F00200A0632068406BC0F3C00018B1A06B73
:201C800040F00800A0632068406BC0F3401018B1A06B40F02000A0632068406BC0F30010B6
:201CA00018B1A06B40F01000A0632068406BC0F3402018B1A06B40F00800A06340F23A70DC
:201CC000216888632068C06B40F23A3188432168C863206800F054FDA16B0843A06305F0A9
:201CE000080040B1012084F83400002020632046FFF730FE2EE005F0800000B305F01000B2
:201D000010B905F0200050B11348E16B0865E06BFEF7CAFD98B1E06B00F0F9FF1AE005F05E
:201D2000010010B905F0020050B10C48216C0865206CFEF7B9FD10B1206C00F0BBFF09E07C
:201D40000020A063012084F83400002020632046FFF7AAFD70BD00000F2D0008B52C00088F
:201D600010B504460CB9012010BD94F8340020B900202077204600F053F8032084F83400DD
:201D8000204600F00BF808B10120EDE70020A0632063012084F834000020E5E770B58AB07A
:201DA00004460020049005900690079008907620099007A807C88DE80700206804A90EC996
:201DC00000F018FA064616B101200AB070BD002012490860206800F0CDFA01200F49A03972
:201DE000C1F8A000204601F0D1F805463DB1012084F83400A06B2843A0630120E5E7204694
:201E000001F043F805463DB1012084F83400A06B2843A0630120D8E70020D6E7A0802542CF
:201E2000704700002DE9F04387B004460F4691461E46C8463FB9A06B40F00060A0630120CC
:201E400007B0BDE8F08394F83400012871D10020A06308EB0601E06D814205D9A06B40F042
:201E60000070A0630120EBE7032084F8340000202168C8622068C06B40F22A310843216842
:201E8000C8633948216CC8633848216CC8640020216C086572029308226802F180013A46FE
:201EA000206CFEF7AFFE80B12068C06B20F495702168C8632E4821688863A06B40F080405E
:201EC000A063012084F83400BAE7012029490860606C012801D04FEA48284FF400712068E7
:201EE00000F00AFB05464DB1214821688863A06B2843A063012084F83400A1E74FF0FF3087
:201F00000190700202909020039002200490002005900120069001A9206800F03DF9012E40
:201F200008D9822020634146206800F04DFB054607E016E0812020634146206800F060FBAE
:201F4000054665B10A4821688863A06B2843A063012084F8340000202063012070E70020D5
:201F60006EE702206CE700006D2C0008F92B0008FF0540008C8525420021014A117070476A
:201F8000160000200021014A11707047170000202DE9F04387B00446884691461E464F46C8
:201FA000B8F1000F07D1A06B40F00060A063012007B0BDE8F08394F83400012877D10020B2
:201FC000A063B919E06D814205D9A06B40F00070A0630120ECE7032084F834000020216820
:201FE000C8622068C06B40F21A2108432168C8633948E16BC8633948E16BC8640020E16B3B
:020000040800F2
:202000000865606C012800D07F024FF40071206800F072FA05464DB1314821688863A06B34
:202020002843A063012084F83400C1E7012E07D9A02020633946206800F0C0FB054606E084
:20204000902020633946206800F0D4FB054665B1234821688863A06B2843A063012084F831
:202060003400002020630120A2E701201D49086071028B08216801F180024146E06BFEF726
:20208000C1FDA8B12068C06B40F21A2188432168C863134821688863A06B40F08040A063BD
:2020A000012084F8340000202063012080E711E04FF0FF30019070020290902003900020CD
:2020C000049005900120069001A9206800F064F800206DE702206BE7FD2C0008F92B00085D
:2020E000FF0540008C85254270B504462546681EB0F1807F01D301200FE0681E4FF0E0217A
:2021000048610F214FF0FF3001F0E4F900204FF0E021886107200861002070BD00B587B098
:2021200000BF002001900D48006840F001000B4908600846006800F00100019000BF00BFCF
:20214000012003900490032005904FF40050029002A90348FEF768FE07B000BD30380240EB
:202160000000024010B504460CB1012000E0002002464FF400510248FEF76DFF10BD0000DC
:202180000000024010B54FF400510248FEF75AFF10BD00000000024010B50246002308685D
:2021A000506248689062D1E9020420430C6920434C6920430343D06A20F0F7001843D062A4
:2021C000002010BD01460869C0B270470146086800F003007047024602F1140043181868A6
:2021E0007047000010B50248FFF7ACFC10BD0000500000200FB410B504460021DDE9030280
:202200001043059A1043069A1043079A1043089A10430143606847F6FF6290430843606015
:20222000002010BC5DF814FB10B588B0002400BF002002904848006840F400604649086039
:202240000846006800F40060029000BF00BF00BF0020029040481438006840F004003E49FC
:20226000143908600846006800F00400029000BF00BF00BF002002900846006840F0080090
:2022800008600846006800F00800029000BF00BF03200690022004900C2007900120059030
:2022A0004FF47060039003A92C48FEF7BDFD002005904FF48050039003A92848FEF7B4FD8C
:2022C000002005900420039003A92548FEF7ACFD00BF0020029020481438006840F480009A
:2022E0001D49143908600846006800F48000029000BF00BF312001F0D7F84FF48060002134
:202300003B234204CDE900101649174802F0A3FB4FF48060402145234204CDE900101149B3
:202320004831124802F097FB00BF0F481049086408460D49886300BF00BF0C480C49C8638A
:2023400008460A49886300BF002003F009F80446204608B010BD00004438024000080240E1
:20236000000C024058640240D4000020340100205000002010B50446032020600220FEF78F
:2023800065F8002010BD00002DE9F04106460F4690464FF6FF7404E014B90120BDE8F08195
:2023A000641E0F48FFF7BCFB0428F5D101200D49087043463A4631460948FFF733FD054674
:2023C0000DB10120EAE74FF6FF7403E00CB90120E4E7641E034800780028F7D100BFDDE749
:2023E00050000020160000200146D1F88000704710B50246002308689060D1E9010420433E
:20240000CC6820430C6920430343D0686FF30B001843D060002010BD2DE9F04106460F4602
:2024200090464FF6FF7404E014B90120BDE8F081641E0F48FFF774FB0428F5D101200D497F
:20244000087043463A4631460948FFF7A1FD05460DB10120EAE74FF6FF7403E00CB9012023
:20246000E4E7641E034800780028F7D100BFDDE7500000201700002002460868C2F8800040
:202480000020704770B586B005460C4601943720029040200390002004904FF48060059090
:2024A00001A92846FFF7A4FF41F288323721284600F0DCF90646304606B070BD70B586B0F3
:2024C00005460C460B48204301902920029040200390002004904FF48060059001A92846C6
:2024E000FFF786FF284600F0C9FA0646304606B070BD00000000108070B586B005460C4613
:2025000001941020029040200390002004904FF48060059001A92846FFF76AFF41F28832A1
:202520001021284600F0A2F90646304606B070BD70B586B005460C46019406200290402027
:202540000390002004904FF48060059001A92846FFF74EFF41F288320621284600F086F930
:202560000646304606B070BD30B585B00446002000900190029003904FF480600490694686
:202580002046FFF735FF204600F050F90546284605B030BD30B585B004464FF4D570009035
:2025A0000820019040200290002003904FF48060049069462046FFF71BFF204600F0E6FAAB
:2025C0000546284605B030BD70B586B005460C4601941220029040200390002004904FF465
:2025E0008060059001A92846FFF702FF41F288321221284600F03AF90646304606B070BD01
:2026000070B586B005460C4601941120029040200390002004904FF48060059001A92846F3
:20262000FFF7E6FE41F288321121284600F01EF90646304606B070BDF0B585B00646144607
:202640001D4600940720019040200290002003904FF48060049069463046FFF7C9FE41F25A
:2026600088320721304600F001F90746384605B0F0BD30B585B00446002000900220019024
:20268000C0200290002003904FF48060049069462046FFF7ADFE204600F0BEF905462846E2
:2026A00005B030BD70B586B005460C46019409200290C0200390002004904FF48060059051
:2026C00001A92846FFF794FE284600F0A5F90646304606B070BD30B585B0044600200090A5
:2026E0003320019040200290002003904FF48060049069462046FFF77BFE41F288323321D5
:20270000204600F0B3F80546284605B030BD70B586B005460C4601940D200290402003901E
:20272000002004904FF48060059001A92846FFF75FFE41F288320D21284600F097F806466E
:20274000304606B070BD70B586B005460C46002001900320029040200390002004904FF4D8
:202760008060059001A92846FFF742FE22460321284600F0AFF90646304606B070BD00005F
:2027800030B585B00446002000900C20019040200290002003904FF48060049069462046F7
:2027A000FFF726FE044A0C21204600F05FF80546284605B030BD000000E1F50570B586B046
:2027C00005460C4601941920029040200390002004904FF48060059001A92846FFF708FE89
:2027E00041F288321921284600F040F80646304606B070BD70B586B005460C4601941820B2
:20280000029040200390002004904FF48060059001A92846FFF7ECFD41F28832182128463C
:2028200000F024F80646304606B070BD01460E480068C0084FF47A73B0FBF3F041F288336E
:2028400000FB03F200BF101EA2F1010202D14FF000407047486B00F080000028F3D0C52009
:2028600088630020F5E70000000000202DE9F04305460F46904666480068C0084FF47A7186
:20288000B0FBF1F000FB08F900BFB9F10000A9F1010903D14FF00040BDE8F0836E6B06F069
:2028A00045000028F1D006F400600028EDD1686B00F0040010B10420A863EDE7686B00F05C
:2028C000010010B10120A863E6E7C520A8632846FFF778FCB84201D00120DDE70021284636
:2028E000FFF779FC04464B48204008B90020D3E704F00040B0F1004F02D14FF00070CBE73D
:2029000004F08040B0F1804F01D14020C4E704F00050B0F1005F01D18020BDE704F0805098
:20292000B0F1805F02D14FF48070B5E704F00060B0F1006F02D14FF40070ADE704F0806023
:20294000B0F1806F02D14FF48060A5E704F08070B0F1807F02D14FF400609DE704F40000EF
:20296000B0F5000F02D14FF4805095E704F48000B0F5800F02D14FF400508DE704F40010B3
:20298000B0F5001F02D14FF4804085E704F48010B0F5801F02D14FF400407DE704F4802013
:2029A000B0F5802F02D14FF4003075E704F40030B0F5003F02D14FF480206DE704F4803063
:2029C000B0F5803F02D14FF4002065E704F40040B0F5004F02D14FF480105DE704F4804043
:2029E000B0F5804F02D14FF4001055E704F40050B0F5005F02D14FF480004DE704F00800EF
:202A0000082801D1000547E74FF4803044E700000000002008E0FFFD10B50146164800688D
:202A2000C0084FF47A74B0FBF4F041F2883400FB04F300BF181EA3F1010302D14FF000404E
:202A400010BD4A6B02F045000028F3D002F400600028EFD1486B00F0040010B1042088631D
:202A6000EEE7486B00F0010010B101208863E7E7C52088630020E3E70000002010B501465C
:202A800013480068C0084FF47A74B0FBF4F041F2883400FB04F300BF181EA3F1010302D1AA
:202AA0004FF0004010BD4A6B02F045000028F3D002F400600028EFD1486B00F0040010B14D
:202AC00004208863EEE7C52088630020EAE70000000000202DE9F04304460F4690462A4801
:202AE0000068C0084FF47A71B0FBF1F041F2883100FB01F900BFB9F10000A9F1010903D12A
:202B00004FF00040BDE8F083666B06F045000028F1D006F400600028EDD1606B00F004002A
:202B200010B10420A063EDE7606B00F0010010B10120A063E6E72046FFF744FBB84201D005
:202B40000120DFE7C520A06300212046FFF743FB054605F4604020B9280CA8F8000000203A
:202B6000D0E705F48040B0F5804F02D14FF40050C8E705F40040B0F5004F02D14FF4805049
:202B8000C0E74FF48030BDE70000002010B5014618480068C0084FF47A74B0FBF4F041F248
:202BA000883400FB04F300BF181EA3F1010302D14FF0004010BD4A6B02F045000028F3D0E4
:202BC00002F400600028EFD1486B00F0040010B104208863EEE7486B00F0010010B10120E5
:202BE0008863E7E7486B00F0400008B1402088630020DFE7000000202DE9F0410646B46B7D
:202C00003046FDF765FE02282CD0206C476DE06BD0F85480012F02D0B8F1010F1FD1124895
:202C2000216888632068C06B20F49D702168C863A06B40F08040A0632046FEF771FF054684
:202C4000062D01D0052D05D12068FFF799FDA16B0843A063012084F8340000202063204620
:202C6000FEF778FEBDE8F081FF05400070B50646B46B206B82280AD12068FFF781FD0546A8
:202C80002DB1A06B2843A0632046FEF763FE2068C06A20F008002168C86240F23A5021685F
:202CA0008863012084F83400002020632046FFF763F970BD70B50546AC6B40F23A50216804
:202CC00088632046FEF72CFF0646012084F8340000202063062E01D0052E05D12068FFF737
:202CE0004FFDA16B0843A063A06B18B92046FEF7DBFD02E02046FEF72DFE70BD0146886B50
:202D00000268D26B42F480720368DA63704770B50546AC6B40F23A50216888632046FEF773
:202D2000FFFE0646012084F8340000202063062E01D0052E05D12068FFF722FDA16B0843D4
:202D4000A063A06B18B92046FEF7AEFD02E02046FEF700FE70BD2DE9F04389B004460F4605
:202D6000FEF780F981464FF000080020019002903E4608212068FFF7BFFB05461DB1284628
:202D800009B0BDE8F0835022125B11042068FFF779FB05460DB12846F2E74FF0FF3003902B
:202DA000082004903020059002200690002007900120089003A92068FFF7EEF92068FFF7BB
:202DC0008AFC05460DB12846DAE715E02068406B00F4001038B12068FFF706FB01A941F8BE
:202DE000280008F10108FEF73DF9A0EB0900401C10B94FF00040C3E72068406B40F22A41CC
:202E000008400028E2D02068406B00F0080018B1082021688863B3E72068406B00F0020041
:202E200018B1022021688863AAE72068406B00F0200018B1202021688863A1E740F23A509E
:202E40002168886302980006029901F47F4140EA0120029901F47F0140EA1120029940EA93
:202E600011603060361D01980006019901F47F4140EA0120019901F47F0140EA11200199C1
:202E800040EA1160306000207AE730B58FB00446012003902068FFF799F918B94FF0806064
:202EA0000FB030BD606C03281BD02068FFF7E1FB05460DB12846F3E700212068FFF78BF9B6
:202EC000606704212068FFF786F9A06708212068FFF781F9E0670C212068FFF77CF98021D9
:202EE0000851606C032807D003A92068FFF72BFC05460DB12846D3E7606C032820D0BDF88D
:202F00000C1021655022125B11042068FFF7CAFB05460DB12846C3E700212068FFF75BF9C4
:202F2000606604212068FFF756F9A06608212068FFF751F9E0660C212068FFF74CF9206725
:202F400004212068FFF747F9010DE16404A92046FEF702FD10B14FF08050A1E75020005B11
:202F600001040A4600232068FFF766FB05460DB1284695E7D4E90412A069CDE900120290D1
:202F800094E80F00FFF736F9002089E7F8B5044600200090002600272068FFF7E5FA054655
:202FA0000DB12846F8BD2068FFF7F4FA054645B10021A1642068FFF7D7FA05461DB1284687
:202FC000F0E70121A164A06C012808D100212068FFF758FA054615B14FF08050E2E71DE00E
:202FE00000212068FFF74EFA05460DB12846D9E718492068FFF762FA054615B14FF0805058
:20300000D0E700212068FFF7E6F80646012080EAD67080F001070098401C00904FF6FF71AE
:203020000098884201D2002FDAD04FF6FF710098884202D34FF08070B4E706F08040B0F175
:20304000804F02D10120606401E0002060640020A8E70000000010C12DE9F0410546AC6AFC
:20306000EF6AE7B14FF0000814E02868FFF7BCF906462670641C7F1E300A2070641C7F1E03
:20308000300C2070641C7F1E300E2070641C7F1E08F10108B8F1080FE7D3AC62EF62BDE8DC
:2030A000F08170B504460D4615B94FF0006070BD5022125B11042068FFF729FB06460EB1A2
:2030C0003046F4E700212068FFF785F828600020EDE77CB5044600200090019000212068A2
:2030E000FFF779F800F00070B0F1007F02D14FF400607CBD69462046FFF72DFE05460DB1FB
:203100002846F6E7019800F4803098B15022125B11042068FFF7B6F905460DB12846E8E777
:2031200000212068FFF704FA05460DB12846E0E70020DEE74FF08060DBE77CB50446002053
:203140000090019000212068FFF745F800F00070B0F1007F02D14FF400607CBD694620462E
:20316000FFF7F9FD05460DB12846F6E7019800F4802098B15022125B11042068FFF782F9AC
:2031800005460DB12846E8E702212068FFF7D0F905460DB12846E0E70020DEE74FF080603D
:2031A000DBE7F8B505462C6A6E6A1EB300271DE020780090641C761E2078009941EA00203A
:2031C0000090641C761E2078009941EA00400090641C761E2078009941EA00600090641C3F
:2031E000761E69462868FFF747F97F1C082FDFD32C626E62F8BD000000B593B000BF002058
:2032000001902248006840F08050204908600846006800F08050019000BF00BF00BF002016
:2032200001901B48006840F44040194908600846006800F44040019000BF00BF01200290C8
:2032400000040390022008904105099108210A914FF4A8710B9102210C9107210D9102A851
:20326000FEF7DEF8FDF77CFF0F200E9002200F90002010904FF4A05011904FF4805012903D
:2032800005210EA8FDF7B2FF13B000BD40380240007000401448006840F470001249086098
:2032A0001248006840F001001049086000200F49083108600D4800680D4908400B4908602A
:2032C0000C48091D0860081F006820F48020091F0860002005490C3108604FF0006002493C
:2032E000803908607047000088ED00E000380240FFFFF6FE10300024F0B52DED028B87B04E
:2033000005460E46444905FB01F000EE100AF8EE400A300100EE100AB8EE400A80EE801A27
:20332000B0EE418ABCEEC80A10EE100A84B200EE104AB8EE400A38EE400AF3EE000A20EEB9
:20334000200ABCEEC00A10EE100A87B24FF6FF7000EA0414E01984B203200590002004902D
:2033600002200390072006904FF44070029000BF002001902948006840F0080027490860FD
:203380000846006800F00800019000BF00BF02A92348FDF749FD2720002809DB00F01F02BC
:2033A000012191404209920002F1E022C2F8001100BF00BF0020019018481030006840F412
:2033C00080201649103108600846006800F48020019000BF00BF13480460001D006820F494
:2033E00000401049091D08600846006840F0080008600846006840F0040008600846006848
:2034000040F0200008600846006840F40050086007B0BDEC028BF0BD40420F00303802407D
:20342000000C0240084800401449096801F0200119B31249091D0968C8B2C02811D1104973
:20344000097831B900210F4A117001210C4A117013E000210A4A117001210B4A82F8201003
:203460000BE007490978012907D106490A780978491C044B19700449885470470048004097
:203480002100002020000020C443002000BF0549096801F040010029F9D00249091D086009
:2034A0007047000000480040002809DB00F01F02012191404209920002F1E022C2F8001120
:2034C0007047000002480068C0F30220704700000CED00E010B5002804DB0A07130E054AD1
:2034E000135406E00A07140E034A00F00F031B1FD45410BD00E400E018ED00E002E008C873
:20350000121F08C1002AFAD170477047002001E001C1121F002AFBD17047000070B504463E
:203520000D460020E070401EE0622946204601F0E3FC08B1042070BD04F22E2001F0D9FA71
:203540004AF65521884201D00320F4E700BF94F83000E92807D094F83000EB2803D094F88B
:203560003000E82811D1032209A104F1660001F047FB08B90020DEE7052206A104F18200E1
:2035800001F03EFB08B90020D5E70220D3E70000464154004641543332000000024600E045
:2035A000521C107810B110788842F9D1107870470246891E5069801E884201D80020704739
:2035C0005389906A03FB0100F9E72DE9F04782468846DAF80040B8F1000F06D1E76817B19B
:2035E0006069B84215D8012713E04146504601F09BF90546022D02D20120BDE8F087681C4F
:2036000008B92846F9E76069A84201D92846F4E74746206908B90020EFE70026474518D15D
:203620007E1C6069B04200D802263146504601F07BF90546012D01D0681C08B92846DCE703
:203640003DB1E568022D03D36069A84200D92F460026E6B93E4600BF761C6069B04204D8F8
:203660000226BE4201D90020C7E73146504601F05BF9054605B909E0012D01D0681C08B9F2
:203680002846BAE7BE42E7D10020B6E700BF4FF0FF323146204601F049FC8146B9F1000FE4
:2036A00008D1B8F1000F05D032464146204601F03DFC8146B9F1000F0DD1E660D4E90410A0
:2036C000801E814202D82069401E2061207940F00100207107E0B9F1010F02D14FF0FF300A
:2036E00000E001200646304687E700002DE9F35F8946D9F80080009800F120050B222021F5
:20370000284601F09CFA0020074606464FF0080B00BF3046761C18F80040202C00DC50E03A
:203720002F2C01D05C2C0AD100E0761C18F806002F28FAD018F806005C28F6D041E02E2C76
:2037400001D05F450BD3BBF10B0F01D02E2C02D00620BDE8FC9F08274FF00B0BD9E7802CFD
:2037600003DB04F07F0021490C5C204600F048F8A8B13046761C18F800A0504600F046F8BB
:2037800018B1ABF10100B84201D80620E1E738467F1C2C5438467F1C05F800A010E021465C
:2037A00013A0FFF7FBFE08B10620D2E7612C04DB7A2C02DCA4F12000C4B238467F1C2C541B
:2037C000A7E700BF08EB0600C9F800000FB90620BFE72878E52801D105202870202C01DCE9
:2037E000042000E00020E8720020B2E768550008222A2B2C3A3B3C3D3E3F5B5D7C7F00000C
:20380000014609B1002070470020FCE7014609B1002070470020FCE72DE9F04104460E460D
:20382000D4F800800021204600F059F90546EDB9002700BF4046A16901F05EFB054605B1C1
:2038400013E0E0690078E52802D0E069007820B9781C0746B04201D107E000270121204600
:2038600000F070F80546002DE4D000BF042D00D107252846BDE8F0812DE9F04704468946ED
:20388000204601F047FD10B10120BDE8F08749462046FFF78DFE0646E6624FF400720021AF
:2038A00004F1300001F0CBF904F130080127002500E03D446089A84207D9721960783B46BC
:2038C000414600F0A1F90028F3D06089A84201D00120DAE70020D8E72DE9F0410446276867
:2038E0000021204600F0FBF8054615B12846BDE8F08100BF3846A16901F0FEFA054605B198
:203900001DE0E06906780EB9042518E0E069C07A00F03F00A071E069C07A00F0080038B9CC
:203920000B2204F12001E06901F06AF900B906E00021204600F006F80546002DDAD000BFB2
:203940002846D4E72DE9F041044688462768206900F12006B6F5001F01D30020A061A069E8
:2039600010B90420BDE8F081C6F30800002845D1A069401CA061606938B93889B0EB561F54
:203980003CD80020A0610420ECE77889401E00EA562098BB2046616900F0C6FF0546012D8B
:2039A00001D80220DEE7681C08B90120DAE77869A8421DD8B8F1000F03D10020A06104208F
:2039C000D0E720466169FFF700FE05460DB90720C8E7012D01D10220C4E7681C08B90120F2
:2039E000C0E729463846FFF747FF08B10120B9E7656129463846FFF7DBFDA0612661C6F3BB
:203A0000080107F130000844E0610020AAE72DE9F047044688460425D4F8009027E04846B8
:203A2000A16901F069FA054605B123E0E06906780EB904251EE0E069C07A00F03F07A7719E
:203A4000E52E0DD02E2E0BD00F2F09D027F02000082801D1012000E00020404500D109E08F
:203A600000212046FFF76EFF054605B102E0A0690028D4D100BF0DB10020A0612846BDE8F2
:203A8000F08770B50446266801212046FFF7C4FE054695B93046A16901F02EFA054665B9D7
:203AA00020220021E06901F0CAF80B2204F12001E06901F0B7F80120F070284670BD70B53A
:203AC000044626683046A16901F016FA054625B9E520E16908700120F070284670BD2DE96B
:203AE000F04104460D462668B5F5001F02D205F01F0010B10220BDE8F0812561A7681FB953
:203B00003078032800DB776A47B93089B0EB551F01D80220EFE7706AA0611CE070894FEA74
:203B2000402811E03946204600F0FEFE0746781C08B90120DFE7022F02D37069B84201D820
:203B40000220D8E7A5EB08054545EBD239463046FFF72EFDA0616761A06908B90220CAE724
:203B6000A06900EB5520A061C5F3080106F130000844E0610020BEE710B50446012009491F
:203B800008704CB9FEF750FB28B90648007820F001000449087001E0042010BD00BF014811
:203BA0000078FAE70D00002003460BB9002070470420FCE72DE9F04105460E4617461C46EF
:203BC00014B90420BDE8F0810948007800F0010008B10320F6E74DB9224639463046FEF713
:203BE000D3FB08B90020EDE70120EBE70420E9E70D0000200146012901DB012070470148C0
:203C00000078FBE70D0000202DE9F04105460E4617461C4614B90420BDE8F0810D480078A4
:203C200000F0010008B10320F6E70A48007800F0040008B10220EFE74DB922463946304608
:203C4000FEF7EAFB08B90020E6E70120E4E70420E2E700000D000020024691F8200008B924
:203C600000207047002081F820000878012801D00020F6E74878904201D00020F1E7087A60
:203C800008B10020EDE7487A08B10020E9E70120E7E77CB504460D46009401956A4608214C
:203CA0000F2000F037F80F2000F046FA7CBD000031B56A4604210A2000F02CF80A2000F00B
:203CC0003BFA50B1072404E02D020548005D0543641E042CF8D2284638BD0020FCE700009C
:203CE000C443002010B5044609480068B0F5FA6F04D9FEF747FA002005490860044800682A
:203D0000401C034908602046FFF7C0FB10BD00001C00002037B582B00546144600200190FF
:203D2000C020FFF7DFFF0020FFF7DCFF2846FFF7D9FF022103A801F073FA042101A801F0B7
:203D40006FFABDF80C10204601F06AFAC020FFF7C9FF05B030BDFFB585B0064614461D463C
:203D60000E9F04F1100080B204900020009001900290039000940195C020FFF7B3FF002093
:203D8000FFF7B0FF3046FFF7ADFF022104A801F047FA042106A801F043FA1021684601F094
:203DA0003FFA2146384601F03BFAC020FFF79AFF09B0F0BD2DE9FF4104460D4617461E4636
:203DC00000940195029703966A4610210220FFF7A1FF022000F0B0F904B0BDE8F081F8B5BC
:203DE00004460E461546A1B2284600F0D3F90746F3B2A2B2394603200095FFF7ACFF03200C
:203E000000F09AF9F8BD2DE9FF4104460D4617461E4600940195029703966A461021052054
:203E2000FFF778FF052000F087F904B0BDE8F081F8B504460E461546A1B2284600F0AAF9BC
:203E40000746F3B2A2B2394607200095FFF783FF072000F071F9F8BD2DE9F04706468946CB
:203E600014461F4600253019401EB0FBF4F01FFA80F800BF0BE03A4629462046FFF7D8FFCB
:203E800010B90020BDE8F0872744681C85B2A8F10100A842EFDC04FB15603A462946FFF74F
:203EA000C7FFEFE77CB504460D46009401956A4608210620FFF72EFF062000F03DF97CBDC7
:203EC00010B58AB0202102A8FCF7DAF9094800680190042404E0552001A90855601CC4B26E
:203EE000242CF8DB01AA24210820FFF713FF0AB010BD0000247800087FB505460C46002063
:203F00000090019002900390009501946A4610211320FFF7FFFE012004B070BD2DE9F043DF
:203F200087B004460D4616461F46DDE90E890194029503960497CDF81480CDF8189001AABE
:203F400018210B20FFF7E6FE0B2000F0F5F807B0BDE8F0832DE9F04391B0002500BFFFF7E8
:203F6000AFFF6D1C6420FCF771FAFEF70BF9322D03D9002011B0BDE8F08346490820FFF74E
:203F80006BFE0028EBD041F63C7602274FF4C058414B424639463046FFF735FF3F4B424623
:203FA00039463046FFF758FF4FF44076012700BF3B4B424639463046FFF725FF394B4246B6
:203FC00039463046FFF748FF3349091D0020FFF769FF1C2234490AA8FCF739F9142232494C
:203FE0001C3105A8FCF733F914222F4930316846FCF72DF9002407E00AA951F82400FFF7B1
:020000040800F2
:2040000057FE8146601CC4B2072CF5D3002408E05DF8241005AA52F8240000F0A5F8601CDC
:20402000C4B2052CF4D32049443103C9CDE90F011D494C3103C9CDE90D011B49543103C97A
:20404000CDE90B01002407E00FA951F82400FFF72FFE8146601CC4B2022CF5D3002409E08F
:204060000BAA52F824100DAA52F8240000F07CF8601CC4B2022CF3D34FF6FF704FF48071B6
:204080000B01421CCDE9001009040020FFF746FF70E70000C443002000001040E855000875
:2040A000A4ABFF3F24750008387800082DE9F043ADF50B7D06460D464FF000090122314626
:2040C00001A800F0B3F820B100200DF50B7DBDE8F083049C04F58040401E870B4FF48048B5
:2040E0002B46424639462046FFF764FE11E06B464FF480420F4901A800F08AF949464A1C7A
:2041000002F0FF090B4A0098FFF769FE08B90020DBE704990698884201D1012000E00020C0
:204120000028E4D001A800F046F821462846FFF7E3FECAE7C403002070B50546002409E00B
:20414000FEF720F86420FCF781F9641C322C01D9002070BD03492846FFF77EFD0028EFD04A
:204160000120F6E7C44300207FB504460D46084B0FCB8DE80F00009401956A461021092064
:20418000FFF7C8FD0920FFF7D7FF04B070BD00002878000810B503460022EF2409B90020C1
:2041A00010BD002203E0985C4440501C82B28A42F9DB2046F4E738B50546284600F084FA20
:2041C00004463CB96946284601F0A0F904460CB900202860204638BDF7B582B01646039812
:2041E000019001A800F010FC0546002D02DA0B2005B0F0BD0C4850F825400CB1002020703A
:20420000029810B10020029908700749029841F825000EB90020EBE7002202A903A800F0A7
:2042200017FD07463846E3E7100000202DE9F74F8CB0044616461CB909200FB0BDE8F08F86
:2042400006F03F06324669460DA800F001FD0546002D7DD10098019001A80D9900F015FB1B
:2042600005462DB99DF82F0000F0800000B1062506F01C0000284DD045B1042D03D101A802
:20428000FFF7FFFB054646F008060AE09DF80A0000F0110008B1072503E006F0040000B1A2
:2042A0000825002D47D106F00800002843D00899009800F0FFFB8146089901F10E0053492C
:2042C00000F0CDFF20200899C87200220899009800F0B3FF089901F11C00002100F0BFFF8C
:2042E00001200099C870B9F1000F24D00098D0F82CA00022494601A800F0B4FE0546D5B91E
:204300005146009800F0F8FD0546A9F101000099C86010E07DB99DF80A0000F0100008B164
:20432000042508E006F0020028B19DF80A0000F0010000B107254DB906F0080008B146F03B
:2043400040060098C06A206208986062002D00E049E056D10899009800F0ACFBA0600899A3
:2043600001F11C0000F0B9FBE060009820600098C088A080267400206074E06160614FF460
:204380000072002104F1280000F059FC06F0200048B3E06838B3E0686061009840894FEA41
:2043A000402BA768D4F80C800CE03946204600F0BBFA0746012F00D80225781C00B90125C6
:2043C000A8EB0B080DB9D845EFD8A7615DB9C8F3080040B139460098FFF7EAF88246BAF159
:2043E000000F01D102250CE00AEB5820E061E26900994878012304F12801FFF7DBFB00B1B8
:2044000001250DB100202060284616E70000214E2DE9FF4F85B0044615469A46DDF818B083
:204420000020CAF8000003A9204601F06FF80490049810B9607C049018B1049809B0BDE804
:20444000F08F207C00F0010008B90720F6E76169E068401A01900198854200D9019DA0E037
:20446000A08AC0F3080000287ED103984089401E616900EA5129B9F1000F17D1606910B9BD
:20448000A068029004E02046A16900F04DFA02900298022802D202206074CFE70298401C2B
:2044A00010B901206074C9E70298A061A1690398FFF77EF8064616B902206074BEE74E449A
:2044C0004FEA5528B8F1000F29D009EB080003994989884203D903984089A0EB09080399C9
:2044E0004878434632465946FFF764FB10B101206074A3E7207C00F0800068B1E069801BBE
:20450000404509D2E169891B0BEB41204FF4007204F1280100F086FB4FEA482737E0E069AA
:20452000B04220D0207C00F0800078B1E26903994878012304F12801FFF766FB10B1012042
:2045400060747BE7207C00F07F002074039948780123324604F12801FFF72CFB18B1012069
:2045600060746BE700E0E661A08AC0F30800C0F50077AF4200D92F46A08AC0F3080204F1C2
:20458000280011183A46584600F04CFB00BFED1BDAF800003844CAF80000BB44606938445A
:2045A0006061002D7FF45CAF002047E7F3B59FB020A800F029FA022208A91FA800F048FBA0
:2045C0000446002C7CD10898149014A81F9900F05CF904462CB99DF87B0000F0A00000B19B
:2045E0000624002C6CD1202268461B9900F01AFB2C2214A909A800F015FB09A8209900F069
:2046000044F904465CB916990B98884205D118990D98884201D1042000E008200446042C74
:2046200044D109A8FFF72DFA0446002C3ED1109D13220DF10D0105F10D0000F0F3FA9DF8AF
:204640000B00E872E87A00F0100018B9E87A40F02000E87201200899C870E87A00F010005A
:2046600020B30B991698884220D02946089800F021FA074639460898FEF79AFF06460EB934
:20468000022413E03146089800F036FC0446089800F1500554B968782E2807D129460B9A69
:2046A000089800F0CAFD01200899C87044B914A8FFF705FA04461CB9089800F0E3FD044622
:2046C000204621B0F0BD0000F8B504466946204600F01CFF0646002E42D1207C00F0400086
:2046E00000283DD0207C00F0800070B1E26900994878012304F12801FFF786FA08B1012022
:20470000F8BD207C00F07F002074164F216A009800F0F2FB06461EBB656AE87A40F020003A
:20472000E8722946A268206800F087FD05F11C00E16800F094FD394605F1160000F08FFDC7
:20474000002105F1120000F096FD01200099C870009800F097FD0646207C00F0BF00207474
:204760003046CDE70000214E31B598B00025022201A918A800F06CFA0446002C46D1019843
:204780000D900DA8189900F080F8044600BF002C3CD19DF85F0000F0800008B1062405E040
:2047A0009DF83A0000F0010000B10724E4B91499019800F07FF905469DF83A0000F01000F8
:2047C00090B1019802900495002102A8FFF787F904464CB9002102A8FFF719F9044604B96A
:2047E0000724042C00D1002484B90DA8FFF767F9044634B92DB1002229460DA800F032FCA8
:2048000004461CB9019800F03DFD0446204619B030BD2DE9FF4107460D4600213846FEF7C6
:204820007DFE0646022E06D0032E00D21DB9304604B0BDE8F08100BF00240AE007F5F77161
:2048400001EB041101F1080000F047F94DF82400641C042CF2D30DB1681E00E000200446C1
:2048600000BF5DF8240028B15DF824103846FEF755FE00E0032006462DB9022E03D3601C21
:2048800004460428EDD33046D2E72DE9F3410446276802E00198401C0190019800782F28C0
:2048A000F8D0019800785C28F4D00020A06001980078202808D280212B20015500212046BB
:2048C000FFF70DF905462CE000BF01A92046FEF70DFF054605B123E02046FEF7FDFF05460F
:2048E0002B20065D3DB1042D04D100BF06F0040000B9052514E006F0040000B110E0A079D2
:2049000000F0100008B905250AE0208AC0F3080207F130001118384600F0CCF8A060D4E71D
:2049200000BF2846BDE8FC812DE9F04781460C46D9F80050022C02D36869A04202D84FF0D2
:2049400001085EE04FF0FF382878012804D002282CD0032851D13CE0264606EB5606286A23
:2049600000EB5621284600F0C7FA00B148E03046761CC0F3080105F13000475C286A00EBD3
:204980005621284600F0B8FA00B139E0C6F3080105F13000405C47EA002704F0010008B13C
:2049A000380901E0C7F30B00804629E0286A00EB1421284600F0A0FA00B121E040F2FF11A3
:2049C00001EA440205F13001501800F092F8804616E0286A00EBD411284600F08DFA00B1E9
:2049E0000EE040F2FF1101EA840205F13001501800F073F820F0704802E04FF0010800BF7B
:204A000000BF4046BDE8F08770B504464FF0FF3026683146324601B970BD00BF12F8013BEF
:204A2000212B01D33A2BF9D13A2B11D101250E78302E08DB0E78392E05DC8E1C964202D1D0
:204A40000E78A6F13005012D01DA28462260E3E7002000BFE0E72DE9F04704460D46164655
:204A60001F46DDE9088925606660C4F808800021E160C4F810904FF4805161618900A161CC
:204A80002021E16100212162042161620321A1624FF40001E162891021632046FCF73CF8AF
:204AA00018B141F28830FBF7D1FC3846FEF7FCFCBDE8F08770B505460C4604F11A0000F03B
:204AC00018F806462878032805D104F1140000F010F846EA0046304670BD0146C8788A7836
:204AE00042EA00204A7842EA00200A7842EA00207047014648780A7842EA0020704700004B
:204B0000FEF77AFB0320FCF717FBA820FBF78AFCC820FBF79BFCFDF701FB012226A1274809
:204B2000FFF75AFB0546002D34D100F023FB044604F0040058B100F039FC04F0020030B950
:204B40001FA0FFF711FE1EA121A0FFF72FFD04F00800F0B1FBF7C4FCFFF7FCF9B8B14FF409
:204B6000E1311F48FFF795F81D492A20FEF7C4FB00211CA0FFF79AFA48B104F0020030B996
:204B80001BA0FFF7F1FD1AA116A0FFF70FFDFBF789FC00BF1948406800F07F40B0F1006F05
:204BA00005D1FBF79DFCFBF77DFC00F0A9FA0120FDF7D8FA00BFFEE7303A000094010020EC
:204BC0004649524D574152452E435552000000006669726D776172652E62696E000000009C
:204BE00090D0030065737033642E62696E00000065737033642E435552000000008000088D
:204C0000F0B503461D460C46002000BF15F8017B14F801CBA7EB0C00561E321E01D0002856
:204C2000F4D0F0BD30B503460C463AB100BF14F8015B03F8015B551E2A1EF8D130BD10B5E4
:204C4000034600BF03F8011B541E221EFAD110BD2DE9F74F84B00021059801600498FFF7AA
:204C6000D3FE03900398002803DA0B2007B0BDE8F08F9C49039851F820400CB90C20F5E734
:204C800005980460069800F0FE000690207878B16078FEF7AFFF074607F0010040B90698D9
:204CA00020B107F0040008B10A20DFE70020DDE700202070039860706078FEF75DFF07460A
:204CC00007F0010008B10320D0E7069820B107F0040008B10A20C9E700212046FFF799FD39
:204CE0000546042D01D10120C0E7022D01D30D20BCE7D4F82C9004F13B00FFF7FAFEB0F580
:204D0000007F01D00D20B1E704F14600FFF7F1FE064626B904F15400FFF7DFFE0646A661C4
:204D20004020005DA070A078012804D0A078022801D00D209AE7A07846433D20005D608194
:204D4000608918B16089411E084008B10D208DE704F14100FFF7CDFE2081207A00F00F0086
:204D600008B10D2082E704F14300FFF7C2FE8246BAF1000F04D104F15000FFF7AEFE8246F0
:204D800004F13E00FFF7B5FE8346BBF1000F01D10D206BE70BEB0600218900EB111002901E
:204DA0000298824501D20D2060E70298AAEB00006189B0FBF1F8B8F1000F01D10D2055E7AB
:204DC00000254948804500D803254FF6F570804500D8022540F6F570804500D801250DB9C6
:204DE0000D2043E708F102006061C4F81C9009EB0B00206202984844A062032D13D104F186
:204E00005A00FFF776FE08B10D202FE7208908B10D202BE704F15C00FFF75FFE6062606902
:204E20008000019014E0208908B90D201EE7206A30446062022D02D16069400007E0207D82
:204E400000F00100616901EB410100EB51000190A169019800F2FF10B1EB502F01D20D20DD
:204E600004E74FF0FF302061E06080202071032D2DD104F16000FFF73CFE012827D109F119
:204E80000101204600F038F808BB0020207104F22E20FFF72EFE4AF65521884217D104F153
:204EA0003000FFF71AFE1149884210D104F50570FFF713FE0E49884209D104F50670FFF7DA
:204EC0000CFE206104F50770FFF707FEE060257008480088401C80B206490880E08000204A
:204EE000C4E6000010000020F5FFFF0F52526141727241611400002070B504460D460026EE
:204F0000E06AA84210D0204600F004FA06465EB9607801232A4604F13001FEF74BFE10B135
:204F20004FF0FF350126E562304670BD2DE9F04704460D4616464FF00209022D74D360691E
:204F4000A84271D92078012804D0022849D003280DD15EE02F4607EB5707206A00EB57214C
:204F60002046FFF7C9FF8146B9F1000F00D075E038467F1CC0F3080104F1300001EB00087A
:204F800005F0010028B1F1B298F8000061F31F1000E0304688F800000120E070206A00EBD0
:204FA00057212046FFF7A8FF8146B9F1000F00D054E0C7F3080104F1300001EB000805F021
:204FC000010010B1C6F3071006E098F8000000F0F000C6F30321084388F800000120E070D0
:204FE0003CE0206A00EB15212046FFF785FF8146B9F1000F00D031E0B1B240F2FF1202EA17
:20500000450304F13002981800F035F90120E07024E0206A00EBD5112046FFF76DFF8146F4
:20502000B9F1000F01D019E019E040F2FF1101EA850204F130015018FFF74FFD66F31B00FC
:20504000064640F2FF1101EA850204F130015018314600F004F90120E07000BF00BF4846E1
:20506000BDE8F0872DE9F04781460E4617464FF00008D9F80040022E02D36069B04202D85D
:205080000220BDE8F08767B100BF4FF0FF3239462046FFF74BFF8046B8F1000F01D0404691
:2050A000EFE700BF31464846FFF73EFC054605B922E0012D01D10220E3E7681C08B90120C9
:2050C000DFE7002231462046FFF730FF8046B8F1000F01D04046D4E7D4E90410801E814224
:2050E00006D22069401C2061207940F0010020712E466069B042D5D800BF0020C1E70000B4
:2051000010B51948006840F00100174908600846006840F00200086013481030006840F481
:2051200080201149103108600F48006820F001000D4908600846006820F0020008600A48BC
:205140001030006820F48020074910310860074840680749086005490868FBF731F8044826
:205160000068804710BD000010380240008000082400002010B5ADF50A7D0024002212A1F6
:205180006846FFF753F820B944F002046846FFF712F800220FA16846FFF748F820B944F09C
:2051A00004046846FFF707F800220EA16846FFF73DF820B944F008046846FEF7FCFF20467D
:2051C0000DF50A7D10BD000061646D696E2E7478740000006669726D776172652E62696E1E
:2051E0000000000065737033642E62696E00000010B50446C02C06D1DB20FEF773FDDC203B
:20520000FEF770FD0BE0DB2C06D1DB20FEF76AFDDD20FEF767FD02E02046FEF763FD10BD4C
:2052200070B505460E46002404E0285DFFF7E0FF601C84B2B442F8DB70BD70B506460C46DD
:205240001546A9B204F11A0000F015F83078032804D1290C04F1140000F00DF870BD00F88C
:20526000011B090A00F8011B090A00F8011B090A00F8011B704700F8011B091200F8011BA3
:205280007047000070B50446204600F043F80546002D38D1207803282ED1207901282BD156
:2052A0004202002104F13000FFF7C9FC4AF6552104F22E20FFF7DFFF144904F13000FFF763
:2052C000CEFF134904F50570FFF7C9FF04F506702169FFF7C4FF04F50770E168FFF7BFFF5A
:2052E000E069401CE0626078012304F13001E26AFEF78AFC00202071607800221146FEF7E7
:2053000053FC00B10125284670BD0000525261417272416170B504460025E078E8B16078A3
:20532000012304F13001E26AFEF76EFCA0B90020E070216AE06A401AA16988420DD2A078B5
:2053400002280AD1A369E16ACA186078012304F13001FEF759FC00E00125284670BD000002
:2053600070B5044600250F480F4908600020486014B14FF4806100E000210B48816000217B
:20538000C160016141618161FCF7EAFC054635B94FF400610448FCF789FA00B10125284649
:2053A00070BD0000002C01405000002070B5ADF5127D00240026022501224AA103A8FEF76E
:2053C00035FF18B100200DF5127D70BD494906980844B0F1016F01D30020F4E7FBF70AFD9D
:2053E0006CE0B6F5FA6F02D9FCF7CCFE0026761C02AB0422404903A8FFF70AF800B166E007
:205400003C4820443D4951F82510884244D10020FCF7A8FE002001908D9002209190384877
:2054200030F815008F900120909001A98DA8FBF733FC08B10020C6E7681CC5B2314800686D
:2054400020F480602F4908600846006820F40070086000BF0846006840F4805008600846A7
:20546000006820F48050086000BF00BF0846006840F4006008600846006820F400600860B6
:2054800000BF0846006840F4007008600846006840F48060086000BF164821181648002382
:2054A00002680220FBF75AFC174908700846007810B90298044401E0002084E70699089824
:2054C000884201D1012000E00020002889D000BF03A8FEF770FEFBF737FC0020FCF742FE49
:2054E000012070E76669726D776172652E62696E000000000080000828000020947800088C
:20550000C4780008003C02402C00002070B504460D4609268CB1206878B12068007860B18D
:20552000A0882168C988884207D121684878FEF761FB00F0010000B900260EB9206800E02E
:2055400000202860304670BD000000000000000001020304060708090000000001020304CE
:205560000006101600061016809A45418E418F804545454949498E8F9092924F994F5555F9
:2055800059999A9B9C9D9E9F41494F55A5A5A6A7A8A9AAABACADAEAFB0B1B2B3B4B5B6B7B1
:2055A000B8B9BABBBCBDBEBFC0C1C2C3C4C5C6C7C8C9CACBCCCDCECFD0D1D2D3D4D5D6D7FB
:2055C000D8D9DADBDCDDDEDFE0E1E2E3E4E5E6E7E8E9EAEBECEDEEEFF0F1F2F3F4F5F6F7DB
:2055E000F8F9FAFBFCFDFEFFA810004001FFFF46450000000080FE3F4F484149A4ABFF3FE2
:205600000CABFE3F80800000C41910400C000060000000010000010000100000FFFF0000ED
:205620008C800000104000000000FFFF004000000080FE3F9C2BFF3FA02BFF3F10270000CE
:2056400014000060FFFF0F00A4ABFF3FA4ABFF3FA42BFF3FB4ABFF3F00800000202900003C
:20566000F88DFE3F5880FE3FA8ABFF3F98AEFF3F989BFE3F84AEFF3F801B0000A00D000016
:205680000008000020090000500E000050120000ACABFF3FB0ABFF3F1F2900003CA9FE3F81
:2056A00008AEFF3F8CADFF3F800B00000CADFF3F8CACFF3FB0150000F1FF000000ABFE3FEA
:2056C00000A9FE3FBC0F0040880F0040A80F0040583F00402C4C0040303B004078480040D1
:2056E000004A0040B4490040CC2E00401CE20040D839004068E2004048DF004090E1004078
:205700004C2600408449004021BCFF92A1109011C022612322A000026143C26142D2614163
:20572000E26140F2613F01E7FFC0000021B2FF31B3FF0C040601000049024B223732F822A6
:20574000A08C2A210C4305B10121AEFFC1ADFF31AEFF2A2CC02000C90242A00022A0050108
:20576000DAFFC0000021A9FF32A101C020004802303420C0200039022C0201D4FFC0000068
:2057800001D4FFC0000031A2FF41A2FF51A3FF71A3FF0C0262A10001CFFFC0000031A0FF4B
:2057A0002198FF3A32C0200028031672FFC02000C8030C02C0200029030C13324184320C1A
:2057C00001225143324185226122669318220C03320C02802211302220664209282CC020E9
:2057E00000280222612222A0C001BBFFC0000022A08410228032A00845A301F20C03220CF3
:205800000280FF1120FF202187FFF7B217059D0122A0EE01B1FFC0000022A0C001AFFFC09B
:205820000000C6DDFF320C010CD2279302C68500373251666302869E00F67323663302468C
:205840005D00F6430A662302864C00069D000000664302467100665302C68300C6980000E4
:205860000C92279302067A00373208667302C680008693006693024678000CB2279302462A
:205880006D00468F001C32279302C6390037322866B3028640001C0237320A0CF227930200
:2058A000062E000687001C122793024642001C2227930246590046820022A0D127132C3724
:2058C000320922A0D0271318C67D000022A0D227930286250022A0D327930286920546783F
:2058E000000C1DCC1FC65C0506740000668F02465D05067100000179FFC00000EAED9C121F
:20590000866D0000202C410176FFC0000056921AD2DDF0D02EC08C4D2030F45653FEDAF2E2
:20592000E13DFF06040000002020F5016EFFC00000565218E0DDC0D02FC0D73EEADAE20620
:2059400004000000202C410166FFC00000569216D2DDF0D02EC056ADFEC657000C0ED2A08B
:20596000C0268F02465800866205000066BF02866005063B0066BF02863F05C64E000C1DA4
:2059800026BF02464D00384C2129FF0C0ED2A0C2271302864C00463B050C1466BF12384C03
:2059A0002123FF0C0ED2A0C2271302864600C63A05DD044641000000211EFF0C0E32020055
:2059C000D2A0C6E79302C63F00382CD852F2CFF0F033C022A0C030D29332CC1822A0EF46C8
:2059E0000200EA434204001BEE402230F72EF2520C05620C04420C06805511320C07605577
:205A0000200044115044208033014033203022C032A0C10C0E20D393462B00002105FFD269
:205A2000A0C63202001633093832D2A0C856B308324200D852C620001C82279F0246200570
:205A40000C0E0C1D46200000664F02462405061A0066BF02062505C601000000664F0286FC
:205A600024050C0ED2A0C0861700000066BF0246220506110041EFFEF2CFF07804CC37D239
:205A8000A0C6FC6F31EDFED2A0C96803F7362CF02014D2A0C092CC188C928607002A898868
:205AA000084B2289052A572086C0F732EF59048903460C05668F028614050C1D0C0EC60104
:205AC000000000E2A000D2A0FFD02074057301E02074C5720122A0C00100FFC0000056BDF5
:205AE000CB220C0132A00F37123127331466420206D00466620206D5042632024627FF46AA
:205B00001A001C2337920246CA0432A0D23712491C133712020621FFC61A000021C8FE01AF
:205B2000F2FEC0000021C6FEC02000380221C5FE203310222C03202382322C0201ECFEC04E
:205B400000003D022D0D01EAFEC0000022A3E801E6FEC000000611FF0000222C02322C030A
:205B6000422C04585C857501460CFF00320C03220C0280331120332032C3F022CC18455A81
:205B8000010606FF000000220C03320C0280221130222022C2F0F2CC1822612B0C1E8693C8
:205BA0000421A9FE31C6FEB22200D1A8FE62A00322230272212B626125B0DDC02737040C2C
:205BC00018826125B26135054C01B2213571A0FE92212B704BC0DA440B84DA6B626129823B
:205BE000612C4058109AAF8C15C66C0477BB02C66C0498EC722C10822C15286C92612672D2
:205C0000612482612A3C53D87CE22C1468FC27B3020619043190FE3022A02802A0020021EC
:205C200084FE0C0E0C13E992E98239D239A2A73F39E261246D0EE26126E0DE209221250CB1
:205C400023303910217BFE9C930C1449625D0BCD0F860A04A7BFE4320F002175FE1BCF39FA
:205C600082C605003982CD0F060400320F001BCF3982E261246D0EE26126DD0EA73C2946C8
:205C80000000CD0F7221250C255037102169FE9C1359625D0B462E0000A7BFE5320F00212D
:205CA00064FE1BCF3992460200320C002161FE1BCC3992215FFE1CF3588268928025116A94
:205CC0002242613052613462612FA26133B261350189FEC000000C13422130522134622154
:205CE0002FA22133B22135CCE22C02206610CC7650203422C2F82036835054418B550C1287
:205D00007156FE0015400062A167370F0005404040910C064062833066209C460C1646002C
:205D200000CD0F2143FE2C4339625D0B46D3030000005D0BF63D40A73C29C600005D0BCDB5
:205D40000F8221250C222028109CC20C332138FE39620C14C6C903A7BFE21BCF220F005DE5
:205D60000B060100220C001BCC001D400022A120EE208BDD06EFFF00712EFEE0202429B7B1
:205D800020214129C7E0E341D2CDFD561223D0202427BD3BA73C24C600005D0BCD0F92216F
:205DA000250C222029100C535612FA860400A7BFE81BCF220F005D0B46010000220C001B8B
:205DC000CC001D400022A120EE208BDD86EFFF00D02024000240E0E0917C8220DD100C0609
:205DE000164D05F68D39A73C23C600005D0BCD0F7221250C222027100C6356F2F44604003D
:205E0000A7BFE81BCF220F005D0B060100220C001BCC001D400022A120EE208BDD86F0FF6A
:205E20002104FE310EFE6A223A22E24218D2CDF8E0E8410616000000A73C41C600005D0BD0
:205E4000CD0F8221250C2220281031F9FD9CF20C722963C6BEFFA7BFE421F5FD4100FE3208
:205E60000F006A224A221BCF3242185D0B86070041FBFD6A334A3322431846040021ECFD8C
:205E800041F7FD320C006A224A223242181BCC1B66F6460206D2FF910AFE620939220938EE
:205EA00080661120662022093B32093A80221130222031DAFD302230279606861C005D0BEE
:205EC000CD0F2C7346E20000F68D3CA73C25C600005D0BCD0F7221250C222027103C33564C
:205EE000A2E6C604000000A7BFE61BCF220F005D0B060100220C001BCC001D400022A12025
:205F0000EE208BDD06F0FF00E08074826126E0E841D2CDF8460200003C4346F6025D0BCD5F
:205F20000F92212997B5F07221260B667245001B550C020C134D02D043936023932784877F
:205F4000861D00000C9346EB025D0BCD0F82212987B5F00607009221250C222C63270902BC
:205F6000467AFFC600005D0BCD0F2C8346B8005D0BCD0FA7BCDF7221295027C0C07AC077C1
:205F8000B2017D0277B6017D062D053D0C4D0752613462612F726132A26133B2613501D61C
:205FA000FDC0000072213252213462212FB22135A221337ACC7A557066C056F6F8C6EC0265
:205FC00066320D46010000005D0BCD0F0CA3C69F0026120286210022A1202267112C0421CE
:205FE000A0FD42671232A00552613462612F726132A26133B2613501C1FDC00000722132D2
:020000040800F2
:2060000022A0E82A773197FDB22135A2213362212F5221342D0742A0084243001B3377931E
:20602000F732C2708D030C944242001B223792F722A10032A1180C74C60100004248001BBA
:20604000221B883792F532AEE83A880C8732A11F2A487244001B2227B3F5066D01000C06F4
:206060002182FD6A2222020027BD3BA73C25C600005D0BCD0F8221250C222028100CB3563C
:20608000A2CCC604000000A7BFE61BCF220F005D0B060100220C001BCC001D400022A1209D
:2060A000EE208BDD06EEFF2170FD0C136A22220200416EFD0012400033A14046A00B33E004
:2060C000331020DDC0000240E0E09148042158FD4A332026A03262111B66B636822164FDF2
:2060E0000C0342A120526134A26133B261350183FDC000000C06522134A22133B2213546EB
:2061000018000000F63D3CA73C25C600005D0BCD0F9221250C222029100CE356E2C2C604D4
:20612000000000A7BFE61BCF220F005D0B060100220C001BCC001D400022A120EE208BDDBE
:2061400006F0FF00214CFD413AFD6A22220200E030242A244149FDD2CDFD4A22324218E03B
:20616000E3411B662133FD3222133736961C333262130627017141FD0C0370728242A04057
:2061800070788072C75822C14452613462612F826131A26133B261357261270158FDC00064
:2061A000007221274137FD22A1202A2732A0000153FDC000002133FD9221270C032A2942CA
:2061C000A480014EFDC0000082213152213428C862212F8082A082281122612D82612E0C48
:2061E00002A22133B2213586050000007221272A373203001B221033A04223111B4442632A
:206200001182212E8792E40C02291129014D020C13E0831172C1448A9798098A819A22F05B
:2062200022111B3329189A4466B3E582A001F6240282A00031FDFC0C093A220C132093935F
:206240008099107CF216F910C600005D0BCD0F2C3321F7FC3962C688028221279A388203FF
:206260000016180F1038A048030C074261361B444903726138703720F033113261373221F4
:20628000364221373030047221363261284033204221387071411B447261364261384798D4
:2062A000D60CA78737307048119044200044114040314261280C140018400084A1460300F3
:2062C0004221274073904221288A3342579072A3FF37B7EB861F00422127307094407790E9
:2062E000429790CC642257904D0222C2FE3039410C07C60B003221373070047044C07CF728
:2063000040473072212770449042D409426128429410CCA442212822541020422022C2FE13
:206320007221361B777261367221363031413261377078C00CB33797BB7221377CF87030F6
:20634000043034C030383042A4907221274033807033909253001B9982212E871902C6BD98
:20636000FF92212D26290286A700868D000CE2D7B202863300C02AC0A6220286290021C275
:20638000FCE0309471ABFC2A2370229042120C0044114030319693014049310C1347BD0178
:2063A0000C030C020C17402793370202062500860B000CA2D7B22991B5FC7CF8000240E074
:2063C00040913038C04040044A339A3370339032930CD6E3061B422B22273D042D0486F674
:2063E000FFA73C24060100005D0BCD0F7221250C222027101C03563295460400A7BFE81B20
:20640000CF220F005D0B060100220C001BCC001D400022A120EE208BDD0CE2D7320206D76C
:20642000FFC6070000320C00420C018B2D001D400033A10012400024A120232020EE202B47
:20644000CCD2CD102191FCE030947179FC2A2370229032120C003311302031969200303974
:2064600031202084060A00009189FC0CA47CF81B34000440E040912028C04040044A229A07
:206480002270229022920CD652004D03C6F7FF002261268221260CF2000340E0E09130DDB3
:2064A000C08732112163FC316DFC6A223A2282421C1B66C63B009221260C020C1342C9F0ED
:2064C0007D024073836032933707141C086D0282612646010000005D0BCD0F1C13065CFFD9
:2064E000216CFC9221269A2222C2F022020022612427BD3FA73C24C600005D0BCD0F722118
:20650000250C222027101C23561284C6040000A7BFE71BCF220F005D0B460100220C00C2D5
:20652000CC01822124001D400022A1D2CD0820EE20873DBF2158FC8221269221240C178A8D
:20654000220019400077A122C2F02202000B77E077102A772142FC4136FC2A264A2200098F
:2065600040E0E09190DDC022C21C0C0366B809314AFC6A443A4432041C4D07526134626134
:206580002F726132A26133B26135015CFCC0000062212F7221325221347A66A22133B22169
:2065A000354600000C067122FC4227112227122A2427B602466DFF6792060602005D0BCDCF
:2065C0000F1C538622FF3135FC2126FC52613462612FA26133B261357261320147FCC00091
:2065E00000722132211EFC3227114227122A337A33211BFC32C31C0140FCC00000B221355E
:20660000A2213362212F5221342109FC38C20B3339C28107FC28C8D6A2B586530100C02A6D
:20662000C0E642070CE3D7B311C635009221295039C0A62302064F0006FAFFA62202C628EA
:206640000071FBFBE020947022904212BC0044114030319693014049310C1347BD010C0300
:206660000C020C17402793370202862500C60B000CA2D7B22A7CF892A4B0000240E040918A
:206680003038C04040044A339A3370339032930CD603071B422B22273D052D0486F6FF0061
:2066A000A73C25C600005D0BCD0F7221250C222027101C738C12C6A4FD460400A7BFE61B46
:2066C000CF220F005D0B060100220C001BCC001D400022A120EE208BDD0CE2D73202C6D7EA
:2066E000FFC6070000320C00420C018B2D001D400033A10012400024A1202320E0E2202BD1
:20670000CCD2CD1041CBFBE020944022902212BC002211206031968600202931606084863D
:2067200009000CA37CF782A4B01B23000340E030916067C03030043A668A6640669062968D
:206740000CD646003D02C6F7FF000240E0E09120DDC022A0FF67B2024649000602001C83B4
:20676000C6E4005D0BCD0F82212987B5F06245001B5586FD000CE9D73919320C01220C000E
:20678000803311202320001D400022A120EE202BCCD2CD1032A0B0E0209441A5FB3A22404B
:2067A000229022120C002211203031202931D6A3020CA41B247CF6000440E040913036C0C2
:2067C0004040044A3372A4B0919AFB7A3390339032930CD653004D02C6F5FF006D03000257
:2067E00040E0E09120DDC0870302C624000CE2D73219420C01220C00804411202420001DF2
:20680000400022A120EE202BCCD2CD1042A0B0E020947187FB4A2270229042120C00441145
:20682000409031926127404931D6F9020CA79221271B477CF2000740E070919022C07070DB
:20684000047A22917BFB72A4B07A2290229022920C226127D642007D0446F4FF2221273215
:206860004500000440E0E09140DDC08702061B556D02C602003221273245012B554667FF0D
:206880000060608466F60246BA0022AEFF2A662184FBE066116A2228022261242182FB6A9B
:2068A00062280662212416260667BD446D02A7BC064608005D0BCD0F7221250C233037102F
:2068C0009CA31C934621FD0000A7BFE71BCF320F005D0BC60100320C001BCC4600002D0621
:2068E000822124001D400033A18BDD30EE20873DBA9221240C130019400033A10B33E03308
:206900001090DDC0000940E0E0913A220CE3D7B302C63400C03AC0A62302C62A007144FBAA
